:100000000C9446000C9465000C9465000C946500FB
:100010000C9465000C9465000C9465000C946500CC
:100020000C9465000C9465000C9465000C946500BC
:100030000C9465000C94E3000C9465000C9465002E
:100040000C9465000C9465000C9465000C9465009C
:100050000C9465000C9465000C9465000C9465008C
:100060000C9465000C9465000C9465000C9465007C
:100070000C9465000C9465000C9465000C9465006C
:100080000C9465000C9465000C94650011241FBE4F
:10009000CFEFD0E4DEBFCDBF11E0A0E0B1E0E2E8F9
:1000A000F4E100E00BBF02C007900D92AE32B10741
:1000B000D9F721E0AEE2B1E001C01D92AA39B20742
:1000C000E1F70E94FE070C943F0A0C940000CF93C6
:1000D000DF9300D000D0CDB7DEB769837A838B83FE
:1000E0009C8389819A81AB81BC818093000190932C
:1000F0000101A0930201B09303018091000190914E
:100100000101A0910201B091030180932F0190930E
:100110003001A0933101B093320100000F900F9095
:100120000F900F90DF91CF910895CF93DF93CDB7CC
:10013000DEB781E890E02BE0FC01208388E890E0C6
:100140002DE730E0FC01318320838FE690E022E050
:10015000FC01208384E890E0FC01118210828091F0
:10016000000190910101A0910201B09103018093DF
:100170002F0190933001A0933101B09332018FE5AC
:1001800090E02FE530E0F90120812068FC01208318
:100190000000DF91CF910895CF93DF93CDB7DEB705
:1001A00081E890E0FC0110820000DF91CF9108957A
:1001B000CF93DF93CDB7DEB781E080932E010000AF
:1001C000DF91CF9108951F920F9200905F000F92E0
:1001D000112400905B000F922F933F934F935F93F6
:1001E0006F937F938F939F93AF93BF93EF93FF93FF
:1001F000CF93DF93CDB7DEB780912F01909130017F
:10020000A0913101B09132010197A109B109809308
:100210002F0190933001A0933101B093320180916E
:100220002F0190913001A0913101B0913201892BC1
:100230008A2B8B2B91F40E94D80080910001909121
:100240000101A0910201B091030180932F019093CD
:100250003001A0933101B09332010000DF91CF91C2
:10026000FF91EF91BF91AF919F918F917F916F918E
:100270005F914F913F912F910F9000925B000F90F3
:1002800000925F000F901F901895CF93DF9300D0DE
:100290001F92CDB7DEB789836A834B838B81882316
:1002A00071F08A81282F30E081E090E002C0880F51
:1002B000991F2A95E2F7982F8981892B0EC08A8190
:1002C000282F30E081E090E002C0880F991F2A9526
:1002D000E2F7982F9095898189230F900F900F90C6
:1002E000DF91CF910895CF93DF9300D0CDB7DEB7E4
:1002F00089836A838A81282F30E081E090E002C000
:10030000880F991F2A95E2F7982F898189230F90EA
:100310000F90DF91CF910895CF93DF93CDB7DEB7E4
:100320002C970FB6F894DEBF0FBECDBF6D837E83D2
:100330008F83988729873A874B875C878D819E8139
:10034000AF81B88529853A854B855C85BC01CD0197
:100350000E941D0ADC01CB0189839A83AB83BC8395
:1003600089819A81AB81BC81892B8A2B8B2B29F4C3
:1003700089859A85AB85BC8511C089859A85AB85B1
:10038000BC858D839E83AF83B88789819A81AB8139
:10039000BC8189879A87AB87BC87D0CFBC01CD0150
:1003A0002C960FB6F894DEBF0FBECDBFDF91CF9174
:1003B0000895CF93DF9300D01F92CDB7DEB7898326
:1003C0007B836A8389818A3031F48A819B81BC0175
:1003D0008DE00E94D90180EC90E0FC018081882FA3
:1003E00090E080729927892BB1F386EC90E0298107
:1003F000FC01208380E090E00F900F900F90DF9140
:10040000CF910895CF93DF9300D000D000D0CDB727
:10041000DEB79E838D831A82198213C01C821B82D1
:1004200006C000008B819C8101969C838B838B810D
:100430009C8187309340ACF389819A8101969A839D
:10044000898329813A818D819E812817390734F368
:10045000000026960FB6F894DEBF0FBECDBFDF9129
:10046000CF910895CF93DF9300D01F92CDB7DEB721
:100470008B831A82198227C088E290E028E0FC0171
:10048000208388E290E028E230E0F9012081422FC9
:100490002B81222F30E0098002C0359527950A94E0
:1004A000E2F72170242BFC01208388E290E028E20F
:1004B00030E0F90120812260FC01208389819A814A
:1004C00001969A83898389819A810897ACF288E2A0
:1004D00090E028E230E0F90120812460FC012083D3
:1004E00088E290E0FC01108200000F900F900F90C6
:1004F000DF91CF910895CF93DF9300D01F92CDB7B6
:10050000DEB78B831A8219822DC088E290E020E842
:10051000FC01208388E290E028E230E0F9012081AC
:10052000422F2B81222F30E0098002C0359527957C
:100530000A94E2F722953295307F3227207F3227C6
:100540002071242BFC01208388E290E028E230E037
:10055000F90120812062FC01208389819A81019622
:100560009A83898389819A8108977CF288E290E056
:1005700028E230E0F90120812064FC01208388E238
:1005800090E0FC01108200000F900F900F90DF911F
:10059000CF910895CF93DF93CDB7DEB78AE790E090
:1005A0002AE730E0F9012081206EFC012083000061
:1005B000DF91CF910895CF93DF931F92CDB7DEB730
:1005C00089838CE790E02981283028F02CE730E0FF
:1005D000F901208101C02981FC01208310923F0193
:1005E00006C0000080913F018F5F80933F018091A2
:1005F0003F018F30B0F300000F90DF91CF9108954D
:10060000CF93DF9300D0CDB7DEB79A83898380E0A4
:100610000E94DB0288E790E0FC0180819181909349
:1006200034018093330189819A81009719F00197F1
:1006300031F00AC081E090E09A83898308C081E0AC
:1006400090E09A83898303C01A821982000089810D
:100650009A81019709F025C080913301909134016E
:10066000813E910558F480911301823020F08091F1
:100670001301869501C081E08093130180913301BD
:10068000909134018D3B924058F080911301803459
:1006900020F480911301880F01C080E8809313013A
:1006A000000089819A810F900F90DF91CF9108957A
:1006B000CF93DF9300D0CDB7DEB79A83898381E0F3
:1006C0000E94DB0288E790E0FC0180819181909399
:1006D00036018093350189819A81009719F001973D
:1006E00031F00AC081E090E09A83898308C081E0FC
:1006F00090E09A83898303C01A821982000089815D
:100700009A81019709F025C08091350190913601B9
:100710008D3B924058F080911201803420F48091FA
:100720001201880F01C080E8809312018091350189
:1007300090913601813E910558F4809112018131EA
:1007400020F080911201869501C080E18093120112
:10075000000089819A810F900F90DF91CF910895C9
:10076000CF93DF9300D0CDB7DEB79A83898382E041
:100770000E94DB0288E790E0FC01808191819093E8
:1007800038018093370189819A81009719F0019788
:1007900031F00AC081E090E09A83898308C081E04B
:1007A00090E09A83898303C01A82198200008981AC
:1007B0009A81019709F025C0809137019091380105
:1007C000813E910558F480911501823020F080918E
:1007D0001501869501C081E0809315018091370154
:1007E000909138018D3B924058F0809115018034F2
:1007F00020F480911501880F01C080E880931501D5
:10080000000089819A810F900F90DF91CF91089518
:10081000CF93DF9300D0CDB7DEB79A83898383E08F
:100820000E94DB0288E790E0FC0180819181909337
:100830003A018093390189819A81009719F00197D3
:1008400031F00AC081E090E09A83898308C081E09A
:1008500090E09A83898303C01A82198200008981FB
:100860009A81019709F025C08091390190913A0150
:100870008D3B924058F080911401843020F4809197
:100880001401880F01C088E0809314018091390120
:1008900090913A01813E910558F480911401823083
:1008A00020F080911401869501C081E080931401AD
:1008B000000089819A810F900F90DF91CF91089568
:1008C000CF93DF9300D0CDB7DEB79A838983898138
:1008D0009A818130910591F08230910509F469C0C7
:1008E000892B09F0A0C083E090E090931B018093D6
:1008F0001A0181E090E09A83898398C083E290E0B6
:10090000FC018081882F90E084709927892B01F564
:1009100010923E0110923D0180E88093120180E820
:100920008093130181E08093140181E0809315018D
:10093000109299011092980183E090E090931B012E
:1009400080931A0183E090E090931D0180931C0135
:100950008091980190919901019729F482E090E0AB
:100960009A83898363C0809112010E943202809130
:1009700012010E943202809112010E943202809183
:10098000130180950E947B028091130180950E9443
:100990007B028091130180950E947B0280E00E947F
:1009A00032028FEF0E947B0281E090E09A8389837C
:1009B0003DC080E00E9432028FEF0E947B0283E202
:1009C00090E0FC018081882F90E084709927892B2A
:1009D00029F510923E0110923D0180E880931201AA
:1009E00080E88093130181E08093140181E080937B
:1009F0001501109299011092980183E090E0909374
:100A00001B0180931A0183E090E090931D01809375
:100A10001C0181E090E09A83898308C082E090E025
:100A20009A83898303C01A821982000089819A817E
:100A30008130910519F00297E1F145C080911A01CA
:100A400090911B0181309105F1F08130910530F1D9
:100A50008230910569F0039709F02AC08BE290E09B
:100A60002BE230E0F90120812863FC01208320C0C3
:100A70008BE290E02BE230E0F9012081277C2063BB
:100A8000FC01208315C08BE290E02BE230E0F901FD
:100A90002081277C2062FC0120830AC08BE290E049
:100AA0002BE230E0F9012081277CFC01208300004B
:100AB0000AC08BE290E02BE230E0F9012081277C34
:100AC000FC012083000089819A810F900F90DF91B3
:100AD000CF910895CF93DF9300D0CDB7DEB79A833F
:100AE000898389819A818130910591F082309105C5
:100AF00009F469C0892B09F0A0C083E090E09093CD
:100B00001D0180931C0181E090E09A83898398C045
:100B100083E290E0FC018081882F90E08470992727
:100B2000892B01F510923E0110923D0180E88093DF
:100B3000120180E88093130181E08093140181E029
:100B40008093150110923C0110923B0183E090E0EC
:100B500090931B0180931A0183E090E090931D0114
:100B600080931C0180913B0190913C01019729F4F5
:100B700082E090E09A83898363C0809114010E948F
:100B80003202809114010E943202809114010E946D
:100B900032028091150180950E947B02809115019F
:100BA00080950E947B028091150180950E947B02B6
:100BB00080E00E9432028FEF0E947B0281E090E091
:100BC0009A8389833DC080E00E9432028FEF0E94A9
:100BD0007B0283E290E0FC018081882F90E08470AA
:100BE0009927892B29F510923E0110923D0180E84A
:100BF0008093120180E88093130181E080931401B7
:100C000081E08093150110923C0110923B0183E03A
:100C100090E090931B0180931A0183E090E0909301
:100C20001D0180931C0181E090E09A83898308C0B4
:100C300082E090E09A83898303C01A8219820000BF
:100C400089819A818130910569F0029709F044C049
:100C50008BE290E02BE230E0F9012081287FFC015B
:100C600020833BC080911C0190911D018130910532
:100C7000F1F08130910530F18230910569F00397F0
:100C800009F02AC08BE290E02BE230E0F9012081EC
:100C90002760FC01208320C08BE290E02BE230E053
:100CA000F9012081287F2360FC01208315C08BE29D
:100CB00090E02BE230E0F9012081287F2160FC01E7
:100CC00020830AC08BE290E02BE230E0F901208122
:100CD000287FFC0120830000000089819A810F9009
:100CE0000F90DF91CF910895CF93DF9300D0CDB7D0
:100CF000DEB79A83898389819A818130910591F049
:100D0000823091051CF4892B41F0A9C082309105F5
:100D100059F1039709F495C0A2C081E090E09A834D
:100D20008983A0C0809112018093160180911301E4
:100D30008093170183E290E0FC018081882F90E08E
:100D400081709927892B59F480913D0190913E0142
:100D5000019729F082E090E09A83898383C081E043
:100D600090E09A8389837EC080911601823008F4D6
:100D70005FC08091160186958093160180911601BF
:100D80000E943202809116010E9432028091160167
:100D90000E9432028091170180950E947B0280910F
:100DA000170180950E947B028091170180950E9417
:100DB0007B0280E00E9432028FEF0E947B0281E082
:100DC00090E00E9402029091160180911401981700
:100DD00051F59091170180911501981721F5809197
:100DE0001C0190911D01019790931D0180931C019E
:100DF00080911C0190911D01892B81F481E090E08C
:100E000090933C0180933B0181E090E090933E0100
:100E100080933D0183E090E09A83898381E090E0B4
:100E20009A8389831FC082E090E09A8389831AC0E5
:100E3000809112018093160181E090E09A8389836A
:100E400011C080913B0190913C01892B19F41A82C9
:100E5000198208C083E090E09A83898303C01A82D4
:100E60001982000089819A810F900F90DF91CF91B4
:100E70000895CF93DF9300D0CDB7DEB79A838983EF
:100E800089819A818130910591F0823091051CF41D
:100E9000892B41F0A9C08230910559F1039709F4DB
:100EA00095C0A2C081E090E09A838983A0C0809120
:100EB000140180931801809115018093190183E238
:100EC00090E0FC018081882F90E082709927892B27
:100ED00059F480913D0190913E01019729F082E003
:100EE00090E09A83898383C081E090E09A8389832C
:100EF0007EC080911801813408F05FC08091180194
:100F0000880F80931801809118010E94320280910D
:100F100018010E943202809118010E9432028091D1
:100F2000190180950E947B028091190180950E9491
:100F30007B028091190180950E947B0280E00E94D3
:100F400032028FEF0E947B0281E090E00E94020259
:100F50009091180180911201981751F59091190103
:100F600080911301981721F580911A0190911B012E
:100F7000019790931B0180931A0180911A0190911F
:100F80001B01892B81F481E090E09093990180937B
:100F9000980181E090E090933E0180933D0183E0D1
:100FA00090E09A83898381E090E09A8389831FC0CF
:100FB00082E090E09A8389831AC080911401809323
:100FC000180181E090E09A83898311C08091980193
:100FD00090919901892B19F41A82198208C083E033
:100FE00090E09A83898303C01A8219820000898164
:100FF0009A810F900F90DF91CF9108950F931F93D7
:10100000CF93DF93CDB7DEB765970FB6F894DEBF09
:101010000FBECDBF81E290E0FC01108282E290E041
:101020002FEFFC01208384E290E0FC01108285E236
:1010300090E02FEFFC01208387E290E02FEFFC018E
:10104000208388E290E0FC0110828AE290E02FEF9A
:10105000FC0120838BE290E0FC01108280E1EEE154
:10106000F1E0DE01169601900D928A95E1F788E095
:1010700090E09C838B838FEF8D838D8180934001E3
:1010800084E190E0A0E0B0E08093410190934201C0
:10109000A0934301B093440180914101909142019A
:1010A000A0914301B0914401809345019093460182
:1010B000A0934701B093480180E093E090934A01E8
:1010C000809349018D8180934B0184E190E0A0E001
:1010D000B0E080934C0190934D01A0934E01B093EA
:1010E0004F0180914C0190914D01A0914E01B09122
:1010F0004F018093500190935101A0935201B093FE
:10110000530188E593E090935501809354018D81BC
:101110008093560181E090E0A0E0B0E08093570119
:1011200090935801A0935901B0935A0180915701AF
:1011300090915801A0915901B0915A0180935B019F
:1011400090935C01A0935D01B0935E0180E694E012
:101150009093600180935F018D818093610184E1B0
:1011600090E0A0E0B0E08093620190936301A093CF
:101170006401B09365018091620190916301A09137
:101180006401B09165018093660190936701A0931B
:101190006801B093690180EB93E090936B018093B9
:1011A0006A018D8180936C0184E190E0A0E0B0E061
:1011B00080936D0190936E01A0936F01B0937001C5
:1011C00080916D0190916E01A0916F01B0917001BD
:1011D0008093710190937201A0937301B093740195
:1011E00088E094E090937601809375018D818093DF
:1011F000770181E090E0A0E0B0E0809378019093E7
:101200007901A0937A01B0937B018091780190914C
:101210007901A0917A01B0917B0180937C01909338
:101220007D01A0937E01B0937F018AE695E09093C3
:101230008101809380018D818093820189E190E01A
:10124000A0E0B0E08093830190938401A093850196
:10125000B09386018091830190918401A0918501D2
:10126000B09186018093870190938801A0938901B2
:10127000B0938A0184E796E090938C0180938B0170
:101280008D8180938D0189E190E0A0E0B0E08093B2
:101290008E0190938F01A0939001B0939101809162
:1012A0008E0190918F01A0919001B0919101809356
:1012B000920190939301A0939401B093950189E3D7
:1012C00097E090939701809396010E94CA0263E091
:1012D00070E080E090E00E9467000E9495001A8212
:1012E00019829BC089819A81880F991F9E012F5F67
:1012F0003F4F820F931F0596FC0180819181FC0175
:10130000258136814781508589819A81880F991F6F
:10131000BE016F5F7F4F860F971F0596FC0180818E
:101320009181FC0181819281A381B48128173907C1
:101330004A075B0709F045C089819A81880F991F88
:101340009E012F5F3F4F820F931F0596FC01008186
:10135000118189819A81880F991F9E012F5F3F4FCC
:10136000820F931F0596FC0180819181FC012185EC
:10137000328589819A81880F991FAE014F5F5F4F37
:10138000840F951F0596FC0180819181FC0180816D
:10139000082E000C990BF9010995F80180838981C9
:1013A0009A81880F991F9E012F5F3F4F820F931FD5
:1013B0000596FC0180819181FC01158216821782BD
:1013C000108689819A81880F991F9E012F5F3F4F58
:1013D000820F931F0596FC012081318189819A81BA
:1013E000880F991FAE014F5F5F4F840F951F0596C1
:1013F000FC0180819181FC0185819681A781B08566
:101400000196A11DB11DF90185839683A783B0873D
:1014100089819A8101969A83898329813A818B8176
:101420009C812817390708F45DCF000080912E01B8
:101430008823E1F310922E0152CFA1E21A2EAA1BAB
:10144000BB1BFD010DC0AA1FBB1FEE1FFF1FA21774
:10145000B307E407F50720F0A21BB30BE40BF50B71
:10146000661F771F881F991F1A9469F760957095FA
:10147000809590959B01AC01BD01CF010895F89432
:02148000FFCF9C
:10148200010000000000000200000000D90100007D
:1014920000008080010180800101030003004001FF
:0E14A2004B01560161016C01770182018D0141
:00000001FF
