:100000000C9446000C9465000C9465000C946500FB
:100010000C9465000C9465000C9465000C946500CC
:100020000C9465000C9465000C9465000C946500BC
:100030000C9465000C94E3000C9465000C9465002E
:100040000C9465000C9465000C9465000C9465009C
:100050000C9465000C9465000C9465000C9465008C
:100060000C9465000C9465000C9465000C9465007C
:100070000C9465000C9465000C9465000C9465006C
:100080000C9465000C9465000C94650011241FBE4F
:10009000CFEFD0E4DEBFCDBF11E0A0E0B1E0E6E4F9
:1000A000F7E000E00BBF02C007900D92A431B1074A
:1000B000D9F721E0A4E1B1E001C01D92A931B20756
:1000C000E1F70E944C030C94A1030C940000CF9321
:1000D000DF9300D000D0CDB7DEB769837A838B83FE
:1000E0009C8389819A81AB81BC818093000190932C
:1000F0000101A0930201B09303018091000190914E
:100100000101A0910201B091030180931501909328
:100110001601A0931701B093180100000F900F90E3
:100120000F900F90DF91CF910895CF93DF93CDB7CC
:10013000DEB781E890E02BE0FC01208388E890E0C6
:100140002DE730E0FC01318320838FE690E022E050
:10015000FC01208384E890E0FC01118210828091F0
:10016000000190910101A0910201B09103018093DF
:10017000150190931601A0931701B09318018FE514
:1001800090E02FE530E0F90120812068FC01208318
:100190000000DF91CF910895CF93DF93CDB7DEB705
:1001A00081E890E0FC0110820000DF91CF9108957A
:1001B000CF93DF93CDB7DEB781E0809314010000C9
:1001C000DF91CF9108951F920F9200905F000F92E0
:1001D000112400905B000F922F933F934F935F93F6
:1001E0006F937F938F939F93AF93BF93EF93FF93FF
:1001F000CF93DF93CDB7DEB78091150190911601B3
:10020000A0911701B09118010197A109B10980933C
:10021000150190931601A0931701B09318018091D6
:10022000150190911601A0911701B0911801892B29
:100230008A2B8B2B91F40E94D80080910001909121
:100240000101A0910201B0910301809315019093E7
:100250001601A0931701B09318010000DF91CF9110
:10026000FF91EF91BF91AF919F918F917F916F918E
:100270005F914F913F912F910F9000925B000F90F3
:1002800000925F000F901F901895CF93DF9300D0DE
:100290001F92CDB7DEB789836A834B838B81882316
:1002A00071F08A81282F30E081E090E002C0880F51
:1002B000991F2A95E2F7982F8981892B0EC08A8190
:1002C000282F30E081E090E002C0880F991F2A9526
:1002D000E2F7982F9095898189230F900F900F90C6
:1002E000DF91CF910895CF93DF9300D0CDB7DEB7E4
:1002F00089836A838A81282F30E081E090E002C000
:10030000880F991F2A95E2F7982F898189230F90EA
:100310000F90DF91CF910895CF93DF93CDB7DEB7E4
:100320002C970FB6F894DEBF0FBECDBF6D837E83D2
:100330008F83988729873A874B875C878D819E8139
:10034000AF81B88529853A854B855C85BC01CD0197
:100350000E947F03DC01CB0189839A83AB83BC833A
:1003600089819A81AB81BC81892B8A2B8B2B29F4C3
:1003700089859A85AB85BC8511C089859A85AB85B1
:10038000BC858D839E83AF83B88789819A81AB8139
:10039000BC8189879A87AB87BC87D0CFBC01CD0150
:1003A0002C960FB6F894DEBF0FBECDBFDF91CF9174
:1003B0000895CF93DF9300D01F92CDB7DEB7898326
:1003C0007B836A8389818A3031F48A819B81BC0175
:1003D0008DE00E94D90180EC90E0FC018081882FA3
:1003E00090E080729927892BB1F386EC90E0298107
:1003F000FC01208380E090E00F900F900F90DF9140
:10040000CF910895CF93DF9300D01F92CDB7DEB781
:100410008B831A82198227C088E290E028E0FC01D1
:10042000208388E290E028E230E0F9012081422F29
:100430002B81222F30E0098002C0359527950A9440
:10044000E2F72170242BFC01208388E290E028E26F
:1004500030E0F90120812260FC01208389819A81AA
:1004600001969A83898389819A810897ACF288E200
:1004700090E028E230E0F90120812460FC01208333
:1004800088E290E0FC01108200000F900F900F9026
:10049000DF91CF910895CF93DF9300D01F92CDB716
:1004A000DEB78B831A8219822DC088E290E020E8A3
:1004B000FC01208388E290E028E230E0F90120810D
:1004C000422F2B81222F30E0098002C035952795DD
:1004D0000A94E2F722953295307F3227207F322727
:1004E0002071242BFC01208388E290E028E230E098
:1004F000F90120812062FC01208389819A81019683
:100500009A83898389819A8108977CF288E290E0B6
:1005100028E230E0F90120812064FC01208388E298
:1005200090E0FC01108200000F900F900F90DF917F
:10053000CF910895CF93DF93CDB7DEB78AE790E0F0
:100540002AE730E0F9012081206EFC0120830000C1
:10055000DF91CF910895CF93DF9300D000D0CDB736
:10056000DEB79C838B830E949A028CE790E02CE795
:1005700030E0F901308121E0332309F020E0FC0173
:10058000208388E790E0FC01808191819A838983B0
:100590008B819C81009719F0019731F00AC081E0AE
:1005A00090E09C838B8308C081E090E09C838B83E8
:1005B00003C01C821B8200008B819C81019709F083
:1005C00059C089819A818D3B924088F08CE790E0F8
:1005D000FC018081882359F480911201803420F439
:1005E00080911201880F01C080E8809312018981F7
:1005F0009A81813E910588F48CE790E0FC0180812E
:10060000813059F480911301823020F080911301E0
:10061000869501C081E08093130189819A81813E92
:10062000910588F48CE790E0FC018081882359F4DF
:1006300080911201823020F080911201869501C0D4
:1006400081E08093120189819A818D3B924088F0EC
:100650008CE790E0FC018081813059F48091130196
:10066000803420F480911301880F01C080E88093CA
:1006700013010000809112010E9402028091130177
:1006800080950E944B028B819C810F900F900F9060
:100690000F90DF91CF910895CF93DF93CDB7DEB761
:1006A00081E290E0FC01108282E290E02FEFFC01F9
:1006B000208387E290E02FEFFC01208388E290E026
:1006C000FC0110828AE290E02FEFFC0120838BE294
:1006D00090E0FC01108262E370E080E090E00E9414
:1006E00067000E94950081E090E00E94AB0200004C
:1006F000809114018823E1F310921401F4CFA1E258
:100700001A2EAA1BBB1BFD010DC0AA1FBB1FEE1F8B
:10071000FF1FA217B307E407F50720F0A21BB30BD6
:10072000E40BF50B661F771F881F991F1A9469F752
:1007300060957095809590959B01AC01BD01CF01AE
:060740000895F894FFCFBC
:10074600010000000000000200000000D9010000C6
:04075600000010107F
:00000001FF
