:100000000C9446000C945D000C945D000C945D0013
:100010000C945D000C945D000C945D000C945D00EC
:100020000C945D000C945D000C945D000C945D00DC
:100030000C945D000C945D000C945D000C945D00CC
:100040000C945D000C945D000C945D000C945D00BC
:100050000C945D000C945D000C945D000C945D00AC
:100060000C945D000C945D000C945D000C945D009C
:100070000C945D000C945D000C945D000C945D008C
:100080000C945D000C945D000C945D0011241FBE67
:10009000CFEFD0E4DEBFCDBF11E0A0E0B1E0E0EEF5
:1000A000F1E000E00BBF02C007900D92AE30B10747
:1000B000D9F70E94D1000C94EE000C940000CF936D
:1000C000DF9300D01F92CDB7DEB789837B836A832D
:1000D00089818A3031F48A819B81BC018DE00E9444
:1000E0005F0080EC90E0FC018081882F90E08072BE
:1000F0009927892BB1F386EC90E02981FC012083BC
:1001000080E090E00F900F900F90DF91CF910895D5
:10011000CF93DF9300D01F92CDB7DEB78B831A82C7
:10012000198227C088E290E028E0FC01208388E261
:1001300090E028E230E0F9012081422F2B81222F2C
:1001400030E0098002C0359527950A94E2F72170C6
:10015000242BFC01208388E290E028E230E0F901C2
:1001600020812260FC01208389819A8101969A83F3
:10017000898389819A810897ACF288E290E028E22D
:1001800030E0F90120812460FC01208388E290E0C6
:10019000FC01108200000F900F900F90DF91CF9123
:1001A0000895CF93DF931F92CDB7DEB787E290E03B
:1001B0002FEFFC01208388E290E0FC01108281E2B5
:1001C00090E0FC01108282E290E02FEFFC0120839E
:1001D00086E6898389810E948800FCCFF894FFCF4E
:0E01E00000000002000000005F0000000000B0
:00000001FF
